{
  "contractName": "Campaign",
  "abi": [
    {
      "inputs": [
        {
          "internalType": "uint256",
          "name": "minimum",
          "type": "uint256"
        },
        {
          "internalType": "address",
          "name": "creator",
          "type": "address"
        }
      ],
      "stateMutability": "nonpayable",
      "type": "constructor"
    },
    {
      "inputs": [
        {
          "internalType": "address",
          "name": "",
          "type": "address"
        }
      ],
      "name": "approvers",
      "outputs": [
        {
          "internalType": "bool",
          "name": "",
          "type": "bool"
        }
      ],
      "stateMutability": "view",
      "type": "function"
    },
    {
      "inputs": [],
      "name": "approversCount",
      "outputs": [
        {
          "internalType": "uint256",
          "name": "",
          "type": "uint256"
        }
      ],
      "stateMutability": "view",
      "type": "function"
    },
    {
      "inputs": [],
      "name": "manager",
      "outputs": [
        {
          "internalType": "address",
          "name": "",
          "type": "address"
        }
      ],
      "stateMutability": "view",
      "type": "function"
    },
    {
      "inputs": [],
      "name": "minimumContribution",
      "outputs": [
        {
          "internalType": "uint256",
          "name": "",
          "type": "uint256"
        }
      ],
      "stateMutability": "view",
      "type": "function"
    },
    {
      "inputs": [],
      "name": "numRequests",
      "outputs": [
        {
          "internalType": "uint256",
          "name": "",
          "type": "uint256"
        }
      ],
      "stateMutability": "view",
      "type": "function"
    },
    {
      "inputs": [
        {
          "internalType": "uint256",
          "name": "",
          "type": "uint256"
        }
      ],
      "name": "requests",
      "outputs": [
        {
          "internalType": "string",
          "name": "description",
          "type": "string"
        },
        {
          "internalType": "uint256",
          "name": "value",
          "type": "uint256"
        },
        {
          "internalType": "address",
          "name": "recipient",
          "type": "address"
        },
        {
          "internalType": "bool",
          "name": "complete",
          "type": "bool"
        },
        {
          "internalType": "uint256",
          "name": "approvalCount",
          "type": "uint256"
        }
      ],
      "stateMutability": "view",
      "type": "function"
    },
    {
      "inputs": [],
      "name": "contribute",
      "outputs": [],
      "stateMutability": "payable",
      "type": "function"
    },
    {
      "inputs": [
        {
          "internalType": "string",
          "name": "description",
          "type": "string"
        },
        {
          "internalType": "uint256",
          "name": "value",
          "type": "uint256"
        },
        {
          "internalType": "address",
          "name": "recipient",
          "type": "address"
        }
      ],
      "name": "createRequest",
      "outputs": [],
      "stateMutability": "nonpayable",
      "type": "function"
    },
    {
      "inputs": [
        {
          "internalType": "uint256",
          "name": "index",
          "type": "uint256"
        }
      ],
      "name": "approveRequest",
      "outputs": [],
      "stateMutability": "nonpayable",
      "type": "function"
    },
    {
      "inputs": [
        {
          "internalType": "uint256",
          "name": "index",
          "type": "uint256"
        }
      ],
      "name": "finalizeRequest",
      "outputs": [],
      "stateMutability": "nonpayable",
      "type": "function"
    }
  ],
  "bytecode": "0x608060405234801561001057600080fd5b5060405161086a38038061086a83398101604081905261002f91610057565b600280546001600160a01b0319166001600160a01b0392909216919091179055600355610094565b6000806040838503121561006a57600080fd5b825160208401519092506001600160a01b038116811461008957600080fd5b809150509250929050565b6107c7806100a36000396000f3fe6080604052600436106100915760003560e01c80638a9cfd55116100595780638a9cfd551461018a578063937e09b1146101aa5780639fb42b1f146101c0578063d7bb99ba146101d6578063d7d1bbdb146101de57600080fd5b806303441006146100965780630a144391146100b8578063481c6a75146100fd57806381d12c581461013557806382fde09314610166575b600080fd5b3480156100a257600080fd5b506100b66100b1366004610555565b6101fe565b005b3480156100c457600080fd5b506100e86100d336600461058a565b60046020526000908152604090205460ff1681565b60405190151581526020015b60405180910390f35b34801561010957600080fd5b5060025461011d906001600160a01b031681565b6040516001600160a01b0390911681526020016100f4565b34801561014157600080fd5b50610155610150366004610555565b6102b2565b6040516100f49594939291906105ac565b34801561017257600080fd5b5061017c60055481565b6040519081526020016100f4565b34801561019657600080fd5b506100b66101a5366004610640565b610379565b3480156101b657600080fd5b5061017c60035481565b3480156101cc57600080fd5b5061017c60005481565b6100b6610402565b3480156101ea57600080fd5b506100b66101f9366004610555565b61043f565b6002546001600160a01b0316331461021557600080fd5b60008181526001602052604090206005546102329060029061070b565b81600301541161024157600080fd5b6002810154600160a01b900460ff161561025a57600080fd5b600281015460018201546040516001600160a01b039092169181156108fc0291906000818181858888f1935050505015801561029a573d6000803e3d6000fd5b50600201805460ff60a01b1916600160a01b17905550565b6001602052600090815260409020805481906102cd9061072d565b80601f01602080910402602001604051908101604052809291908181526020018280546102f99061072d565b80156103465780601f1061031b57610100808354040283529160200191610346565b820191906000526020600020905b81548152906001019060200180831161032957829003601f168201915b5050505060018301546002840154600390940154929390926001600160a01b0382169250600160a01b90910460ff169085565b6002546001600160a01b0316331461039057600080fd5b60008054600190829081806103a483610768565b90915550815260208082019290925260400160002085519092506103cd918391908701906104bc565b5060018101929092556002820180546001600160a81b0319166001600160a01b03909216919091179055600060039091015550565b600354341161041057600080fd5b336000908152600460205260408120805460ff19166001179055600580549161043883610768565b9190505550565b600081815260016020908152604080832033845260049092529091205460ff1661046857600080fd5b33600090815260048201602052604090205460ff161561048757600080fd5b3360009081526004820160205260408120805460ff19166001179055600382018054916104b383610768565b91905055505050565b8280546104c89061072d565b90600052602060002090601f0160209004810192826104ea5760008555610530565b82601f1061050357805160ff1916838001178555610530565b82800160010185558215610530579182015b82811115610530578251825591602001919060010190610515565b5061053c929150610540565b5090565b5b8082111561053c5760008155600101610541565b60006020828403121561056757600080fd5b5035919050565b80356001600160a01b038116811461058557600080fd5b919050565b60006020828403121561059c57600080fd5b6105a58261056e565b9392505050565b60a08152600086518060a084015260005b818110156105da576020818a0181015160c08684010152016105bd565b818111156105ec57600060c083860101525b5060208301879052601f01601f1916820160c001905061061760408301866001600160a01b03169052565b9215156060820152608001529392505050565b634e487b7160e01b600052604160045260246000fd5b60008060006060848603121561065557600080fd5b833567ffffffffffffffff8082111561066d57600080fd5b818601915086601f83011261068157600080fd5b8135818111156106935761069361062a565b604051601f8201601f19908116603f011681019083821181831017156106bb576106bb61062a565b816040528281528960208487010111156106d457600080fd5b826020860160208301376000602084830101528097505050505050602084013591506107026040850161056e565b90509250925092565b60008261072857634e487b7160e01b600052601260045260246000fd5b500490565b600181811c9082168061074157607f821691505b6020821081141561076257634e487b7160e01b600052602260045260246000fd5b50919050565b600060001982141561078a57634e487b7160e01b600052601160045260246000fd5b506001019056fea2646970667358221220bc8eefee33781867d55779a95f83141cb097102b4ac8fe09dc8624d7b2a4ad2b64736f6c634300080b0033",
  "immutableReferences": {},
  "source": "// SPDX-License-Identifier: MIT\npragma solidity ^0.8.4;\n// - [ ] npm init\n// - [ ] npm install chai\n// - [ ] npm install truffle\n// - [ ] ./node_modules/.bin/truffle init\n// - [ ] truffle compile\n// - [ ] truffle migrate\n\ncontract CampaignFactory {\n    address[] public deployedCampaigns;\n\n    function createCampaign(uint minimum) public {\n        Campaign newCampaign = new Campaign(minimum, msg.sender);\n        deployedCampaigns.push(address(newCampaign));\n    }\n\n    function getDeployedCampaigns() public view returns (address[] memory) {\n        return deployedCampaigns;\n    }\n}\n\ncontract Campaign {\n    struct Request {\n        string description;\n        uint value;\n        address recipient;\n        bool complete;\n        uint approvalCount;\n        mapping(address => bool) approvals;\n    }\n\n    // Request[] public requests;\n    uint256 public numRequests;\n    mapping (uint256 => Request) public requests;\n    address public manager;\n    uint public minimumContribution;\n    mapping(address => bool) public approvers;\n    uint public approversCount;\n\n    modifier restricted() {\n        require(msg.sender == manager);\n        _;\n    }\n\n    constructor(uint minimum, address creator){\n        manager = creator;\n        minimumContribution = minimum;\n    }\n\n    function contribute() public payable {\n        require(msg.value > minimumContribution);\n\n        approvers[msg.sender] = true;\n        approversCount++;\n    }\n\n    function createRequest(string memory description, uint value, address recipient) public restricted {\n        Request storage r = requests[numRequests++];\n        r.description = description;\n        r.value = value;\n        r.recipient = recipient;\n        r.complete = false;\n        r.approvalCount = 0;\n        // Request memory newRequest = Request({\n        //     description: description,\n        //     value: value,\n        //     recipient: recipient,\n        //     complete: false,\n        //     approvalCount: 0\n        // });\n\n        // requests.push(newRequest);\n    }\n\n    function approveRequest(uint index) public {\n        Request storage request = requests[index];\n\n        require(approvers[msg.sender]);\n        require(!request.approvals[msg.sender]);\n\n        request.approvals[msg.sender] = true;\n        request.approvalCount++;\n    }\n\n    function finalizeRequest(uint index) public restricted {\n        Request storage request = requests[index];\n\n        require(request.approvalCount > (approversCount / 2));\n        require(!request.complete);\n\n        payable(request.recipient).transfer(request.value);\n        request.complete = true;\n    }\n}",
  "sourcePath": "/Users/apple/blockchain/crowdfund/src/contracts/Campaign.sol",
  "compiler": {
    "name": "solc",
    "version": "0.8.11+commit.d7f03943.Emscripten.clang"
  },
  "schemaVersion": "3.3.4",
  "updatedAt": "2022-03-04T04:44:28.198Z",
  "devdoc": {
    "kind": "dev",
    "methods": {},
    "version": 1
  },
  "userdoc": {
    "kind": "user",
    "methods": {},
    "version": 1
  }
}